S014000073756374696F6E5F70756D702E73726563EA
S11300000C94240A0C944C0A0C944C0A0C944C0A3C
S11300100C944C0A0C944C0A0C944C0A0C944C0A04
S11300200C944C0A0C944C0A0C944C0A0C944C0AF4
S11300300C944C0A0C944C0A0C944C0A0C944C0AE4
S11300400C9496120C944C0A0C9460100C9492101C
S11300500C944C0A0C944C0A0C944C0A0C944C0AC4
S11300600C9450260C944C0A05A84CCDB2D44EB92D
S11300703836A9020C50B9918688083CA6AAAA2A47
S1130080BE000000803F8615951599159D15A11594
S1130090A515A915AD15B115B515B915BD15C1151C
S11300A0C515C915CD15D115D515D915DD15E1150C
S11300B0E515000000000000000000000000000042
S11300C0000000000000000000000000000000002C
S11300D0000000000000000000000000000000001C
S11300E0000000000000000000000000000000000C
S11300F000000000000000000000000000000000FC
S113010000000000000000000000000000000000EB
S113011000000000000000000000000000000000DB
S113012000000000000000000000000000000000CB
S113013000000000000000000000000000000000BB
S113014000000000000000000000000000000000AB
S1130150000000000000000000000000000000009B
S1130160000000000000000000000000000000008B
S1130170000000000000000000000000000000007B
S1130180000000000000000000000000000000006B
S1130190000000000000000000000000000000005B
S11301A0000000000000000000000000000000004B
S11301B0000000000000000000000000000000003B
S11301C0000000000000000000000000000000002B
S11301D0000000000000000000000000000000001B
S11301E0000000000000000000000000000000000B
S11301F000000000000000000000000000000000FB
S113020000000000000000000000000000000000EA
S113021000000000000000000000000000000000DA
S113022000000000000000000000000000000020AA
S113023000000000000000000000000000000000BA
S1130240000000000000000000000070000000003A
S1130250000000000000000000000000000000009A
S1130260000000000000007000000000000000001A
S1130270000000000000000000000000000000007A
S1130280C00000600000000000000000000000004A
S1130290000000000000000000000600C01800E09C
S11302A0000000000000000000000000000000004A
S11302B00000000000300600C01800E0000000004C
S11302C0000000000000000000000000000000002A
S11302D000300600C03800C000000000000000002C
S11302E0000000000000000000008000001806006C
S11302F0C03001C000000000000000000000000049
S1130300000000000001C000C0180600C03001C099
S113031000000000000000000000000000000000D9
S11303200000E000C0180600C0300180000000009A
S11303300000000000000000000000000000E000D9
S1130340C0180200C030038000000000000000005C
S113035000000000000000000000700060180000B1
S113036000300380000000000000000000000000D6
S113037000000000000038006008000000000300D6
S11303800C0000000000000000000000000000005D
S11303900000380060000000000007000C000000AE
S11303A000000000000000000000000000001C002D
S11303B030000000000007001C00000000000000E6
S11303C0000000000000000000001C0020000000ED
S11303D00000000018000000000000000000000001
S11303E00000000000000E000000000000000000FB
S11303F038000000000000000000000000000000C1
S113040000000700000000000000000030020000AF
S113041000000000000000000000000000000700D1
S11304200000000000000000600700000000000061
S11304300000000000000000000003800000000035
S113044000000000000600000000000000000000A2
S11304500000000000300100000000000000000067
S1130460000C00000000000000000000000000007C
S1130470003000000000000000000000001C00002C
S11304800000000000000000000000000018000050
S11304900000000000000000001800000000000040
S11304A00000000000000000001C000C0604000016
S11304B000060618003000000000000000000000E4
S11304C000000000000E001F1F0C0000001F0F3E64
S11304D00010030000000000000000000000000005
S11304E0000600331B1C0000001B19E6000003007B
S11304F000000000000000000000000000020033C3
S113050019BC0000001999FC00000600000000005E
S113051000000000000000002000003319FC00006F
S1130520001999F600000C00000000000000000013
S1130530000000003000003319FE0000001999E6A5
S113054000001C000000000000000000000000008B
S1130550180000331B7E0000001B19A600003800A1
S11305600000000000000000000000000C00001E5D
S1130570CF0C0000000F6F3C0000100000000000D2
S11305800000000000000000060000000000000061
S11305900000000000000000000000000000000057
S11305A00000000003000000000000000000000044
S11305B00000000300000000000000000000000034
S11305C00000000000000000000000000000000720
S11305D00000000000000000000000000000000017
S11305E000000000000000000000000C00000000FB
S11305F000000000000000100000000000000000E7
S113060000000000000000180000000000000000CE
S1130610000000380000000000000000000000009E
S11306200000007000000000000000000000001C3A
S11306300000000000000000000000000000002096
S113064000000000000000000000000F0000000097
S11306500000000000000000000000000000000096
S11306600000000000000003800000000000000003
S11306700000000000000000000000000000000076
S113068000000001800000000000000000000000E5
S11306900000000004000000000000000000000052
S11306A00000000000000000000000000000000046
S11306B00E00000000000000000000000000000028
S11306C00000000000000000000000001C0000000A
S11306D00000000000000000000000000000000016
S11306E00000000000000000700000000000000096
S11306F000000C00000000000000000000000000EA
S113070000000000E00000000000000000000E00F7
S113071000000000000000000000000000000000D5
S113072080000000000000000000078000000000BE
S113073000000000000000000000000000000000B5
S113074000000000000001E00000000000000000C4
S11307500000000000000000000000000000000095
S11307600000006000000000000000000000000025
S11307700000000000000000000000000000000075
S11307800000000000000000000000000000000065
S11307900010000000000000000000000000000045
S11307A000000000000000000000000000700000D5
S11307B00000000000000000000000000000000035
S11307C0000000000000000001E000000000000044
S11307D00000000000000000000000000000000015
S11307E00000000003800000000000000000000082
S11307F000000000000000000000000000000000F5
S1130800060000000000000000018000000000005D
S113081000000000000000000000000000000000D4
S1130820000000000001F0000000000000000000D3
S113083000000000000000000000000000000000B4
S113084000007C0000000000000000000000000028
S113085000000000000000000000000000001C0078
S11308600000000000000000000000000000000084
S113087000000E0000000000000000000000000066
S113088000000000000000000000000000003E0026
S11308900000000000000000000000000000000054
S11308A000000000000000000001FC000000000047
S11308B00000000000000000000000000000000034
S11308C000000000000FF000000000000000000025
S11308D00000000000000000000000000000000014
S11308E0003F800000000000000000000000000045
S11308F000000000000000000000000000FC0000F8
S11309000000000008000030186000000000000033
S11309100000000000006030C0F000000000000093
S11309200F00007C7DF000000000000000000000CB
S11309300000F879F0000000000000000FF0006CE7
S11309406DB0000000000000000000000000D8CFDF
S1130950300000000000000001FE00CC6630000002
S11309600000000000000000000198CFB00000006B
S113097000000000003FE0CC6630000000000000F2
S113098000000000000198CDE0000000000000001D
S11309900003E0CC666000000000000000000000DE
S11309A0000198CF30000000000000000000406CFF
S11309B06CC0000000000000000000000000D8CF60
S11309C030000000000000000000007BBDF00000CB
S11309D000000000000000000000F379F0000000B7
S11309E00000000000000000000000000000000003
S11309F000000000000000004000000000000000B3
S1130A0000000000000000000000000000000000E2
S1130A100000000000006000000000000000000072
S1130A2000000000000000000000000000000000C2
S1130A30000FF000000000000000000000000000B3
S1130A40000000000000000000000000000F800013
S1130A500000000000000000000000000000000092
S1130A600000000000000000000000000000000082
S1130A7000F0000000000000000000000000000082
S1130A8000000000000000000000000000FF000063
S1130A900000000000000000000000000000000052
S1130AA00000000000000000000F00000000000033
S1130AB00000000000000000000000000000000032
S1130AC00000000000000000000000000000000022
S1130AD00000000000000000000000000000000012
S1130AE00000000000000000000000000000000002
S1130AF000000000000000000000000000000000F2
S1130B0000000000000000000000000000000000E1
S1130B1000000000000000000000000000000000D1
S1130B2000000000000000000000000000000000C1
S1130B3000000000000000000000000000000000B1
S1130B4000000000000000000000F80000000000A9
S1130B500000000000000000000000000000000091
S1130B60000000000007F800000000000000000082
S1130B700000000000000000000000000000000071
S1130B80000400000000000000000000000000005D
S1130B900000000000000000000000000000000051
S1130BA00000000001FE0000000000000000000042
S1130BB00000000000000000000000000000000031
S1130BC001FE000000000000000000000000000022
S1130BD00000000000000000000000000000000011
S1130BE00000000000000000000000000000000001
S1130BF000000000000000000000000000000000F1
S1130C0000000000000000000000000000000000E0
S1130C1000000000000000000000000000000000D0
S1130C2000000000000000000000000000000000C0
S1130C3000000000000000000000000000000000B0
S1130C4000000000000000000000000000000000A0
S1130C500000000000000000000000000000000090
S1130C600000000000000000000000000000000080
S1130C700000000000000000000000000007F80071
S1130C800000000000000000000000000000000060
S1130C9000000000000000000003F8000000000055
S1130CA00000000000000000000000000000000040
S1130CB0000000000000000000000000001600001A
S1130CC00000000000000000000000000000000020
S1130CD0000000000000000001FE00000000000011
S1130CE00000000000000000000000000000000000
S1130CF00000000001F000000000000000000000FF
S1130D0000000000000000000000000000000000DF
S1130D1000000000000000000000000000000000CF
S1130D2000000000000000000000000000000000BF
S1130D3000000000000000000000000000000000AF
S1130D40000000000000000000000000000000009F
S1130D50000000000000000000000000000000008F
S1130D60000000000000000000000000000000007F
S1130D70000000000000000000000000000000006F
S1130D80000000000000000000000000000000005F
S1130D9000000000000F80000000000000000000C0
S1130DA0000000000000000000000000000000003F
S1130DB0000FF00000000000000000000000000030
S1130DC000000000000000000000000000002000FF
S1130DD0000000000001800000000000000000008E
S1130DE000000000000000000000000000000000FF
S1130DF0003F800000000000000000000000000030
S1130E00000000000000000000000000007E000060
S1130E1000000000000000000000000000000000CE
S1130E2000000000000000000000000000000000BE
S1130E3000000000000000000000000000000000AE
S1130E40000000000000000000000000000000009E
S1130E50000000000000000000000000000000008E
S1130E60000000000000000000000000000000007E
S1130E70000000000000000000000000000000006E
S1130E80000000000000000000000000000000005E
S1130E90000000000000000000000000000000004E
S1130EA000000000000000000000000000780000C6
S1130EB0000000000000000000000000000000002E
S1130EC00000000000000000003F8000000000005F
S1130ED0000000000000000000000000000000000E
S1130EE00000000000078000000000000000600017
S1130EF000000000000000000000000000000000EE
S1130F0000000000000000000003F00000000000EA
S1130F1000000000000000000000000000000000CD
S1130F2000000000000F800000000000000000002E
S1130F3000000000000000000000000000000000AD
S1130F40000C0003C00000000000000000000000CE
S1130F500000F0700000000000000000000000032A
S1130F60E000000000000000000000000001F87034
S1130F700000000000000000000000063000000037
S1130F80000000000000000000019C700000000050
S1130F900000000000000006300000000000000017
S1130FA00000000000018C7003000000000000003D
S1130FB000000006300000000000000000000000F7
S1130FC000FD8C7003C0000000000000000000065B
S1130FD030000000000000000000000000018C70E0
S1130FE000F80000000000000000070630000000C8
S1130FF0000000000000000000019C7000180000C8
S11310000000000000001F0360000000000000005A
S1131010000000000001D970000000000000000082
S113102000007E03E000000000000000000000005B
S11310300000F37000000000000000000001F80050
S1131040000000000000000000000000000000009C
S113105000000000000000000003E00000000000A9
S1131060000000000000000000000000000000007C
S113107000000000000F80000000000000000000DD
S1131080000000000000000040000000000000001C
S1131090003E00000000000000000000000000000E
S11310A000000000E0000000000000000038000024
S11310B0000000000000000000000000000000002C
S11310C0F800000000000000002000000000000004
S11310D00000000000000000000000003E000000CE
S11310E00000000000000000000000000000C0EF4D
S11310F0C0000000000000000F800000000000009D
S113110000000000000000000000E0EFE00000002C
S11311100000000007C00000000000000000000004
S1131120000000000000E0EC67F000000000000098
S113113001F00000000000000000000000000000BA
S11311400000F1EC6FF0000000000000007C0000E3
S11311500000000000000000000000000000F1ECAE
S1131160EC30000000000000001C00000000000043
S113117000000000000000000000DBEFCC300000A5
S113118000000000000C000000000000000000004F
S1131190000000000000DB6C0C30000000000000C8
S11311A0000000000000000000000000000000003B
S11311B00000DF6C0C3000000000000000000000A4
S11311C00000000000000000000000000000CE6CE1
S11311D00E7000000000000000000000000000008D
S11311E000000000000000000000CE6C07F00000CA
S11311F000000000000000000000000000000000EB
S113120000000000000000000000000000000000DA
S113121000000000000000000000000000000000CA
S113122000000000000000000000000000000000BA
S113123000000000000000000000000000000000AA
S1131240000000000000000000000000000000009A
S1131250000000000000000000000000000000008A
S1131260000000000000000000000000000000007A
S1131270000000000000000000000000000000006A
S1131280000000000000000000000000000000005A
S1131290000000000000000000000000000000004A
S11312A0000000000000000000000000000000003A
S11312B0000000000000000000000000000000002A
S11312C0000000000000000000000000000000001A
S11312D0000000000000000000000000000000000A
S11312E000000000000000000000000000000000FA
S11312F000000000000000000000000000000000EA
S113130000000000000000000000000000000000D9
S113131000000000000000000000000000000000C9
S113132000000000000000000000000000000000B9
S113133000000000000000000000000000000000A9
S11313400000000000000000000000000000000099
S11313500000000000000000000000000000000089
S11313600000000000000000000000000000000079
S11313700000000000000000000000000000000069
S11313800000000000000000000000000000000059
S11313900000000000000000000000000000000049
S11313A00000000000000000000000000000000039
S11313B00000000000000000000000000000000029
S11313C00000000000000000000000000000000019
S11313D00000000000000000000000000000000009
S11313E000000000000000000000000000000000F9
S11313F000000000000800020100000304070000D0
S113140000000000000001020408102040800102D6
S11314100408102001020408102004040404040435
S11314200404020202020202030303030303000092
S11314300000250028002B000000000024002700E5
S11314402A00380CC210842211241FBECFEFD8E02A
S1131450DEBFCDBF12E0A0E0B1E0E8ECF5E502C0EC
S113146005900D92A831B107D9F724E0A8E1B2E0C4
S113147001C01D92A23CB207E1F71AE0C4E2DAE02F
S113148004C02197FE010E94D827C132D107C9F7B1
S11314900E94F0100C94E22A0C940000CF92DF9288
S11314A0EF92FF920F931F9326E040E855E260E02D
S11314B070E08EE493E00E94F80F82E093E00E94D3
S11314C00E1B61E082E093E00E94C317CC24CA940F
S11314D0DC2C90EBE92EF12C0CED10E022EB30E04B
S11314E040E050E060E070E082E093E00E94FE2083
S11314F0EE24EA94FE2C07E810E022E430E04EE605
S113150050E06EE670E082E093E00E947E1E0FEFF2
S11315101FEF2AE030E04EE650E06EE670E082E035
S113152093E00E949D1D61E082E093E00E94B41765
S113153088E192E00E94611697FF07C06CE171E0B8
S11315408EE493E00E944B11FFCF1F910F91FF9007
S1131550EF90DF90CF9008954F925F926F927F92B9
S11315608F929F92AF92BF92CF92DF92EF92FF92AF
S11315700F931F93CF93DF9388E192E00E94A61606
S113158082E093E00E94E0178C0182E093E00E94E5
S1131590DC17015011099C0121503109EE24EA9411
S11315A0FE2C40E050E060E070E082E093E00E94B6
S11315B02F1F88E192E00E9471152B013C0120E06D
S11315C035E84FEC59E40E94350E87FF09C040927C
S11315D04A0350924B0360924C0370924D0308C02F
S11315E010924A0310924B0310924C0310924D0335
S11315F020E030E04AE754E460914A0370914B03E1
S113160080914C0390914D030E94C00C6B017C01AE
S1131610C8ECD0E0412C512C3201A7019601C30142
S1131620B2010E944F0C2B013C0161E070E080E0AC
S113163090E00E940513219781F720E030E048E410
S113164053E4C301B2010E94C00C2B013C010E946F
S1131650320D1F921F9221E02F9320E92F9326E948
S1131660A22EB12CC12CD12C14E6E12EF12C00E0D9
S113167010E020E030E0A9010E947C137093010186
S1131680609300016AE571E08EE493E00E943E11EC
S113169024E030E0B301A2018EE493E00E949412AE
S11316A066E671E08EE493E00E943E116DE771E01E
S11316B08EE493E00E943E11C301B2010E94320DF8
S11316C070934703609346030F900F900F900F9011
S11316D020914803309149032617370709F4B7C00E
S11316E06091020170910301072E000C880B990B85
S11316F00E946A0D25E33AEF4EE85CE30E943A0E3D
S11317002B013C010E94A70E4B015C01C301B201F5
S11317100E94BB0C6B017C0120E030E048E452E401
S1131720C501B4010E943A0E20E030E04CED52E4D1
S11317300E944F0C0E94390D4B015C0120E030E007
S113174048E452E4C701B6010E943A0E20E030E0BA
S11317504CED52E40E944F0C0E94390DE12CF12C07
S113176084019B014EE650E06EE670E082E093E077
S11317700E947E1E0FEF1FEF2AE030E04EE650E09D
S11317806EE670E082E093E00E949D1D6FE070E0E1
S113179080E090E00E9405136091000170910101C6
S11317A0072E000C880B990B0E946A0D25E33AEF73
S11317B04EE85CE30E943A0E2B013C010E94A70E06
S11317C04B015C01C301B2010E94BB0C6B017C01A3
S11317D020E030E048E452E4C501B4010E943A0E2E
S11317E020E030E04CED52E40E944F0C0E94390D91
S11317F02B013C0120E030E048E452E4C701B6018B
S11318000E943A0E20E030E04CED52E40E944F0C6E
S11318100E94390DEE24EA94FE2C82019B014EE6CF
S113182050E06EE670E082E093E00E947E1E8091BC
S11318304603909147039093490380934803809112
S11318400001909101019093030180930201DF91C3
S1131850CF911F910F91FF90EF90DF90CF90BF90A9
S1131860AF909F908F907F906F905F904F9008956E
S1131870EF920F9388ECE82E03E02AE049E068E059
S113188082E093E00E944A172FE040E164EF73E0A6
S113189088E192E00F91EF900C94BD135058BB2750
S11318A0AA270E94660C0C94E70D0E94AE0D38F036
S11318B00E94B50D20F039F49F3F19F426F40C94DE
S11318C0AB0D0EF4E095E7FB0C94A50DE92F0E94F7
S11318D00C0E58F3BA17620773078407950720F0B4
S11318E079F4A6F50C942E0E0EF4E0950B2EBA2F77
S11318F0A02D0B01B90190010C01CA01A001112412
S1131900FF27591B99F0593F50F4503E68F11A16BD
S1131910F040A22F232F342F4427585FF3CF46954E
S113192037952795A795F0405395C9F77EF41F1670
S1131930BA0B620B730B840BBAF09150A1F0FF0F3A
S1131940BB1F661F771F881FC2F70EC0BA0F621F26
S1131950731F841F48F4879577956795B795F79516
S11319609E3F08F0B0CF9395880F08F09927EE0FAB
S11319709795879508950E94BE0DE3950C94F80DF4
S11319800E94D40C0C94E70D0E94B50D58F00E94EF
S1131990AE0D40F029F45F3F29F00C94A50D5111D0
S11319A00C942F0E0C94AB0D0E940C0E68F399232B
S11319B0B1F3552391F3951B550BBB27AA27621747
S11319C07307840738F09F5F5F4F220F331F441F54
S11319D0AA1FA9F335D00E2E3AF0E0E832D0915088
S11319E05040E695001CCAF72BD0FE2F29D0660F75
S11319F0771F881FBB1F261737074807AB07B0E8B8
S1131A0009F0BB0B802DBF01FF2793585F4F3AF0BD
S1131A109E3F510578F00C94A50D0C942F0E5F3F5A
S1131A20E4F3983ED4F3869577956795B795F79543
S1131A309F5FC9F7880F911D9695879597F908952B
S1131A40E1E0660F771F881FBB1F621773078407C7
S1131A50BA0720F0621B730B840BBA0BEE1F88F7D6
S1131A60E09508950E94390D6894B1110C942F0EDD
S1131A7008950E94140E88F09F5798F0B92F992763
S1131A80B751B0F0E1F0660F771F881F991F1AF065
S1131A90BA95C9F714C0B13091F00E942E0EB1E08E
S1131AA008950C942E0E672F782F8827B85F39F08D
S1131AB0B93FCCF3869577956795B395D9F73EF4FE
S1131AC090958095709561957F4F8F4F9F4F0895A6
S1131AD0E89409C097FB3EF49095809570956195C4
S1131AE07F4F8F4F9F4F9923A9F0F92F96E9BB277A
S1131AF09395F695879577956795B795F111F8CFF6
S1131B00FAF4BB0F11F460FF1BC06F5F7F4F8F4F60
S1131B109F4F16C0882311F096E911C0772321F056
S1131B209EE8872F762F05C0662371F096E8862FEE
S1131B3070E060E02AF09A95660F771F881FDAF745
S1131B40880F9695879597F9089597F99F6780E888
S1131B5070E060E008959FEF80EC089500240A94FB
S1131B601616170618060906089500240A94121674
S1131B7013061406050608950C94AB0D0E94140E6A
S1131B80D8F3E894E0E0BB279F57F0F02AED3FE05C
S1131B9049EC06C0EE0FBB0F661F771F881F28F0A5
S1131BA0B23A62077307840728F0B25A620B730BC8
S1131BB0840BE3959A9572F7803830F49A95BB0FAD
S1131BC0661F771F881FD2F790480C94D50E092EF4
S1131BD00394000C11F4882352F0BB0F40F4BF2B84
S1131BE011F460FF04C06F5F7F4F8F4F9F4F0895C4
S1131BF0EF93E0FF07C0A2EA2AED3FE049EC5FEB78
S1131C000E94660C0E94E70D0F90039401FC90580B
S1131C10E8E6F0E00C94E10E57FD9058440F551F90
S1131C2059F05F3F71F04795880F97FB991F61F05A
S1131C309F3F79F087950895121613061406551FD1
S1131C40F2CF4695F1DF08C0161617061806991F3D
S1131C50F1CF86957105610508940895E894BB2732
S1131C6066277727CB0197F908950E94AF0E08F4F1
S1131C708FEF08950E944D0E0C94E70D0E94AE0D57
S1131C8038F00E94B50D20F0952311F00C94A50DA9
S1131C900C94AB0D11240C942F0E0E940C0E70F3B7
S1131CA0959FC1F3950F50E0551F629FF001729FFD
S1131CB0BB27F00DB11D639FAA27F00DB11DAA1F0C
S1131CC0649F6627B00DA11D661F829F2227B00D59
S1131CD0A11D621F739FB00DA11D621F839FA00DE4
S1131CE0611D221F749F3327A00D611D231F849F34
S1131CF0600D211D822F762F6A2F11249F5750408B
S1131D009AF0F1F088234AF0EE0FFF1FBB1F661F05
S1131D10771F881F91505040A9F79E3F510580F0CE
S1131D200C94A50D0C942F0E5F3FE4F3983ED4F36E
S1131D30869577956795B795F795E7959F5FC1F772
S1131D40FE2B880F911D9695879597F908959F937B
S1131D500E94BE0D0F9007FCEE5F0C94F80D990FD6
S1131D600008550FAA0BE0E8FEEF16161706E80761
S1131D70F907C0F012161306E407F50798F0621B82
S1131D80730B840B950B39F40A2661F0232B242B57
S1131D90252B21F408950A2609F4A140A6958FEF76
S1131DA0811D811D08959F3F31F0915020F4879546
S1131DB077956795B795880F911D9695879597F9AF
S1131DC008959F938F937F936F93FF93EF939B015A
S1131DD0AC010E943A0EEF91FF910E94F50E2F91F3
S1131DE03F914F915F910C943A0EDF93CF931F93E1
S1131DF00F93FF92EF92DF927B018C01689406C0EF
S1131E00DA2EEF010E944D0EFE01E894A591259172
S1131E10359145915591A6F3EF010E94660CFE01A0
S1131E209701A801DA9469F7DF90EF90FF900F9182
S1131E301F91CF91DF910895FC01918D228D892FFF
S1131E4090E0805C9F4F821B91098F7399270895BE
S1131E50FC01918D828D981731F0828DE80FF11D70
S1131E60858D90E008958FEF9FEF0895FC01918D8B
S1131E70828D981761F0828DDF01A80FB11D5D96E8
S1131E808C91928D9F5F9F73928F90E008958FEF56
S1131E909FEF0895FC01538D448D252F30E0842F4E
S1131EA090E0821B930B541710F0CF96089501977E
S1131EB0089588EB90E1892B49F080E090E0892B2C
S1131EC029F00E94B81081110C9400000895FC01BF
S1131ED0848DDF01A80FB11DA35ABF4F2C91848DAF
S1131EE090E001968F739927848FA689B7892C93E4
S1131EF0A089B1898C91837080648C93938D848D37
S1131F00981306C00288F389E02D80818F7D808339
S1131F100895EF92FF920F931F93CF93DF93EC01F9
S1131F2081E0888F9B8D8C8D981305C0E889F98991
S1131F30808185FD26C0F62E0B8D10E00F5F1F4FAC
S1131F400F731127E02E8C8DE8120CC00FB607FC1E
S1131F50FACFE889F989808185FFF5CFCE010E9407
S1131F60670FF1CF8B8DFE01E80FF11DE35AFF4F90
S1131F70F0829FB7F8940B8FEA89FB898081806295
S1131F800AC09FB7F894EE89FF896083E889F989CC
S1131F9080818370806480839FBF81E090E0DF91C3
S1131FA0CF911F910F91FF90EF900895CF93DF93FE
S1131FB0EC01888D8823C9F0EA89FB89808185FD3D
S1131FC005C0A889B9898C9186FD0FC00FB607FC9E
S1131FD0F5CF808185FFF2CFA889B9898C9185FFDF
S1131FE0EDCFCE010E94670FE7CFDF91CF91089527
S1131FF0CF92DF92EF92FF921F93CF93DF93EC0186
S11320006A017B01122FE889F98982E080834115F6
S1132010514E61057105B1F060E079E08DE390E027
S1132020A70196010E949727DA01C9010197A10926
S1132030B109B695A795979587959C01211580E1DF
S11320403807A8F0E889F989108260E874E88EE11D
S113205090E0A70196010E949727DA01C901019730
S1132060A109B109B695A795979587959C01EC852B
S1132070FD853083EE85FF852083188EEC89FD89EC
S11320801083EA89FB89808180618083EA89FB89E6
S1132090808188608083EA89FB898081806880836D
S11320A0EA89FB8980818F7D8083DF91CF911F91A5
S11320B0FF90EF90DF90CF90089580E090E0089536
S11320C01F920F920FB60F9211242F938F939F9309
S11320D0EF93FF93E0915E03F0915F038081E091C1
S11320E06403F091650382FD12C0908180916703BF
S11320F08F5F8F7320916803821751F0E09167031B
S1132100F0E0E25BFC4F958F8093670301C0808110
S1132110FF91EF919F918F912F910F900FBE0F9090
S11321201F9018951F920F920FB60F9211242F93A0
S11321303F934F935F936F937F938F939F93AF934B
S1132140BF93EF93FF938EE493E00E94670FFF9198
S1132150EF91BF91AF919F918F917F916F915F911B
S11321604F913F912F910F900FBE0F901F90189594
S11321708EE493E00E941C0F21E0892B09F420E0F7
S1132180822F0895EEE4F3E01382128288EE93E046
S1132190A0E0B0E084839583A683B7838EE691E0C4
S11321A09183808385EC90E09587848784EC90E02C
S11321B09787868780EC90E0918B808B81EC90E010
S11321C0938B828B82EC90E0958B848B86EC90E0F1
S11321D0978B868B118E128E138E148E089508950C
S11321E00E9441130E94EF100E944E0AC9E5DFE0ED
S11321F00E94AC0A2097E1F30E94590FF9CFCF92C5
S1132200DF92EF92FF920F931F93CF93DF936C01B2
S11322107A018B01C0E0D0E0CE15DF0581F0D80152
S11322206D918D01D601ED91FC910190F081E02D2D
S1132230C6010995892B11F02196EECF7E01C701C5
S1132240DF91CF911F910F91FF90EF90DF90CF908E
S113225008956115710579F0FB0101900020E9F7FB
S11322603197AF01461B570BDC01ED91FC910280C5
S1132270F381E02D099480E090E008950C942911F5
S1132280DC01ED91FC910190F081E02D09946CE763
S113229071E00C9429110F931F93CF93DF93EC01FA
S11322A00E9429118C01CE010E944711800F911FB9
S11322B0DF91CF911F910F9108958F929F92AF92CA
S11322C0BF92EF92FF920F931F93CF93DF93CDB7FB
S11322D0DEB7A1970FB6F894DEBF0FBECDBF7C0169
S11322E0FA01CB0119A2223008F42AE08E010F5D15
S11322F01F4F822E912CA12CB12CBF01A50194015A
S11323000E949727F901CA01015011096A3010F49B
S1132310605D01C0695CD8016C93232B242B252BB1
S113232061F7B801C7010E942911A1960FB6F8946C
S1132330DEBF0FBECDBFDF91CF911F910F91FF90F4
S1132340EF90BF90AF909F908F9008952115310525
S113235041F4DC01ED91FC910190F081E02D642FBA
S113236009940C945D119A01AB0160E070E00C9447
S1132370A6117F928F929F92AF92BF92CF92DF92DB
S1132380EF92FF920F931F93CF93DF938C016A0117
S11323907B01722E9A01AB01C701B6010E9482270C
S11323A0882319F06FE771E027C046015701E894CC
S11323B0B7F82FEF3FEF4FE75FE7C501B4010E9485
S11323C0822781110DC02FEF3FEF4FE75FE7C50173
S11323D0B4010E947D2718161CF463E871E00CC058
S11323E02FEF3FEF4FE75FE4C701B6010E94350EC0
S11323F0181694F467E871E0C801DF91CF911F913A
S11324000F91FF90EF90DF90CF90BF90AF909F908F
S11324108F907F900C9429112FEF3FEF4FE75FECE3
S1132420C701B6010E947D2787FDE4CF20E030E09C
S1132430A901C701B6010E947D2787FF0AC06DE28A
S1132440C8010E944011EC01F7FAF094F7F8F094F7
S113245002C0C0E0D0E0B12C60E070E080E09FE317
S11324607B1441F020E030E040E251E40E94C00CD3
S1132470B394F6CFA70196010E944F0C6B017C0127
S11324800E94390D4B015C012AE0AB01BC01C8017B
S11324900E945D11C80FD91F7720B9F1C501B4019D
S11324A00E94680D9B01AC01C701B6010E944E0C4D
S11324B06B017C016EE2C8010E944011C80FD91F54
S11324C020E030E040E251E4C701B6010E943A0E38
S11324D04B015C010E94390D6B017C014AE050E024
S11324E0C8010E94B311C80FD91FB60180E090E063
S11324F00E94680D9B01AC01C501B4010E944E0C01
S11325006B017C017A947110DBCFCE01DF91CF9106
S11325101F910F91FF90EF90DF90CF90BF90AF90FD
S11325209F908F907F9008950C94B9111F920F92F1
S11325300FB60F9211242F933F938F939F93AF93D2
S1132540BF938091EC039091ED03A091EE03B091C1
S1132550EF033091EB0323E0230F2D3720F4019692
S1132560A11DB11D05C026E8230F0296A11DB11DB2
S11325702093EB038093EC039093ED03A093EE037D
S1132580B093EF038091F0039091F103A091F203D3
S1132590B091F3030196A11DB11D8093F0039093B4
S11325A0F103A093F203B093F303BF91AF919F9112
S11325B08F913F912F910F900FBE0F901F90189500
S11325C03FB7F8948091F0039091F103A091F20346
S11325D0B091F30326B5A89B05C02F3F19F00196CF
S11325E0A11DB11D3FBFBA2FA92F982F8827820F95
S11325F0911DA11DB11DBC01CD0142E0660F771FE5
S1132600881F991F4A95D1F708958F929F92AF9290
S1132610BF92CF92DF92EF92FF926B017C010E94F6
S1132620E0124B015C01C114D104E104F10401F195
S11326300E9488220E94E012DC01CB0188199909CA
S1132640AA09BB09883E9340A105B10560F321E0C6
S1132650C21AD108E108F10888EE880E83E0981EBA
S1132660A11CB11CC114D104E104F10419F7DBCF9E
S1132670FF90EF90DF90CF90BF90AF909F908F909E
S11326800895789484B5826084BD84B5816084BDE6
S113269085B5826085BD85B5816085BDEEE6F0E0D7
S11326A0808181608083E1E8F0E010828081826033
S11326B08083808181608083E0E8F0E080818160B4
S11326C08083E1EBF0E0808184608083E0EBF0E0E4
S11326D0808181608083EAE7F0E080818460808388
S11326E08081826080838081816080838081806832
S11326F080831092C10008954F925F926F927F92EF
S1132700AF92BF92CF92DF92EF92FF920F931F93FB
S1132710CF93DF93CDB7DEB729013A019B01AC011A
S1132720241935094609570989899A89AB89BC89CD
S1132730BC01CD016A197B098C099D090E94872778
S1132740A801970124193509460957090E94B92798
S1132750CA01B9016A0D7B1D8C1D9D1DDF91CF91AE
S11327601F910F91FF90EF90DF90CF90BF90AF90AB
S11327707F906F905F904F9008954F925F926F9209
S11327807F928F929F92AF92BF92CF92DF92EF92FD
S1132790FF920F931F93CF93DF93FC015B01942E61
S11327A0822E8AE090E0938B828B80E89AE1A6E007
S11327B0B0E082A393A3A4A3B5A380E196E7A7ED19
S11327C0B5E486A397A3A0A7B1A72DEC3CE033A75B
S11327D022A783E393E795A784A737A726A791ABFE
S11327E080AB80E090E0A8ECB1EC82AB93ABA4ABFF
S11327F0B5AB80E090E0AAEAB2E486AB97ABA0AFB9
S1132800B1AF12AE13AE14AE15AEDF01DE964AE9D7
S113281059E969E97DE34D935D936D937C93139737
S113282014961D921D921D921C921397EF01CA5B80
S1132830DF4F8AE999E9A9E1BEE388839983AA83F2
S1132840BB8324960AE919E929E93DEB0883198336
S11328502A833B832496488359836A837B83249603
S11328604AE959E969E17EEB488359836A837B83AA
S1132870249688839983AA83BB83DF01A65ABF4F1A
S11328801D921D921D921C92139714960AE919E940
S113289029E93EE30D931D932D933C9313971496CE
S11328A01D921D921D921C92139714964DEC5CEC94
S11328B06CE47FE34D935D936D937C93139714962F
S11328C01D921D921D921C921397689680E090E0D1
S11328D0A0ECBFE388839983AA83BB8324960F2E3D
S11328E0FAE9CF2EF9E9DF2EED2CFEEBFF2EF02DC9
S11328F0C882D982EA82FB822496088319832A83B8
S11329003B8324960DEC1CEC2CE43FEB08831983E9
S11329102A833B832496488359836A837B83249642
S113292040E050E060EC7FEB488359836A837B830B
S1132930249688839983AA83BB83DF01A657BF4F5C
S11329401D921D921D921C921397149600E010E0A4
S113295020E430E40D931D932D933C931397149628
S11329601D921D921D921C921397149640E050E004
S113297060EA70E44D935D936D937C931397149682
S11329801D921D921D921C921397689680E090E010
S1132990A0E7B1E488839983AA83BB832496188231
S11329A019821A821B8224960F2EC12CD12CF0EF8F
S11329B0EF2EF1E4FF2EF02DC882D982EA82FB8249
S11329C02496188219821A821B8224960F2E412C77
S11329D0512CF0E76F2EF2E47F2EF02D48825982BD
S11329E06A827B822496188219821A821B82249618
S11329F00F2E412C512CF8EC6F2EF2E47F2EF02D8B
S1132A00488259826A827B8224960F2E412C512C53
S1132A10F0E46F2EF0EC7F2EF02D488259826A820A
S1132A207B822496088319832A833B83249600E0BF
S1132A3010E020EA30EC088319832A833B83249630
S1132A40488359836A837B83249640E050E060E79F
S1132A5071EC488359836A837B83249688839983A2
S1132A60AA83BB83249640E050E060E371E448838A
S1132A7059836A837B83249640E050E06CE871E4D8
S1132A80488359836A837B832496188219821A8225
S1132A901B82249688839983AA83BB83DF01AE516A
S1132AA0BF4F1D921D921D921C9213971496CD92A6
S1132AB0DD92ED92FC921397B186A086928683866E
S1132AC0DF91CF911F910F91FF90EF90DF90CF9006
S1132AD0BF90AF909F908F907F906F905F904F903A
S1132AE00895FC0160817181828193810895DC01E4
S1132AF01B96EC911B974E2F50E04631510508F080
S1132B007CC0FA01ED5BFF4F0C94D827DA964D9107
S1132B105D916D917C91DD975A964D935D936D9384
S1132B207C935D97FC01FE965EC0FC01EE5BFF4F5B
S1132B304FC0FC01E65BFF4F4BC0FC01EE5AFF4F58
S1132B4047C0FC01E65AFF4F43C0FC01EE59FF4F5A
S1132B503FC0FC01E659FF4F3BC0FC01EE58FF4F5C
S1132B6037C0FC01E658FF4F33C0FC01EE57FF4F5E
S1132B702FC0FC01E657FF4F2BC0FC01EE56FF4F60
S1132B8027C0FC01E656FF4F23C0FC01EE55FF4F62
S1132B901FC0FC01E655FF4F1BC0FC01EE54FF4F64
S1132BA017C0FC01E654FF4F13C0FC01EE53FF4F66
S1132BB00FC0FC01E653FF4F0BC0FC01EE52FF4F68
S1132BC007C0FC01E652FF4F03C0FC01EE51FF4F6A
S1132BD040815181628173815A964D935D936D93C7
S1132BE07C935D97349640815181628173815E96B6
S1132BF04D935D936D937C9391970895EF92FF921B
S1132C000F931F93CF93DF93EC017B018A0144E080
S1132C106A85888599850E94812290E0998B888BAA
S1132C20049709F041C088859985DC01ED91FC91F8
S1132C300284F385E02D09958C8788859985DC01CC
S1132C40ED91FC910284F385E02D09958D878885AB
S1132C509985DC01ED91FC910284F385E02D0995C1
S1132C608E8788859985DC01ED91FC910284F3853A
S1132C70E02D09958F878C858F7790E0982F882792
S1132C802D85820F911DF701918380838E858F7727
S1132C9090E0982F88272F85820F911DD8018D935E
S1132CA09C9381E090E002C08FEF9FEF9D8B8C8B13
S1132CB08C899D89DF91CF911F910F91FF90EF90A7
S1132CC00895CF92DF92EF92FF920F931F93CF93C9
S1132CD0DF93EC01888599850E94EA214AA15BA1D2
S1132CE06CA17DA1888599850E94FC21CE010E945A
S1132CF0771500E010E07E0188E1E80EF11C6E011A
S1132D0086E1C80ED11C8A899B890817190798F493
S1132D10A701B601CE010E94FE159D8B8C8B18165F
S1132D2019064CF06AE070E080E090E00E94051320
S1132D300F5F1F4FE8CF8C899D89DF91CF911F9141
S1132D400F91FF90EF90DF90CF9008954F925F9294
S1132D506F927F928F929F92AF92BF92CF92DF92A7
S1132D60EF92FF920F931F93CF93DF93EC01AC018B
S1132D70485E5F4FBC016A5E7F4F0E94FE158C0166
S1132D809D8B8C8B6AA47BA4CA8CDB8CEC8CFD8C15
S1132D906E897F896619770980E090E00E94680D4A
S1132DA04B015C016CA57DA566197709072E000C03
S1132DB0880B990B0E946A0D2B013C01A701960117
S1132DC06E8D7F8D88A199A10E944E0C9B01AC0150
S1132DD0C301B2010E94C00C9B01AC01C501B40146
S1132DE00E94C00CA70196010E944F0C2EA13FA186
S1132DF048A559A50E943A0E688379838A839B83E8
S1132E006EA47FA4CAA8DBA8ECA8FDA8688D798D60
S1132E106619770980E090E00E94680D4B015C011F
S1132E2068A979A966197709072E000C880B990BF4
S1132E300E946A0D2B013C01A70196016EA97FA98E
S1132E4088AD99AD0E944E0C9B01AC01C301B20147
S1132E500E94C00C9B01AC01C501B4010E94C00CCE
S1132E60A70196010E944F0C6C837D838E839F8300
S1132E70C801DF91CF911F910F91FF90EF90DF90E8
S1132E80CF90BF90AF909F908F907F906F905F9006
S1132E904F900895EF920F93CF93DF93EC0188E165
S1132EA0E4E0F1E0DE015C9601900D928A95E1F791
S1132EB06E834F8328878FEF8A8789870B87EB8EF2
S1132EC081E08CABFE01FE96108211821282138285
S1132ED0CE5BDF4F19821882DF91CF910F91EF9073
S1132EE00895CF93DF93EC01DB01FA018A8D8230E0
S1132EF0A9F0833029F18130A1F58A819B81019762
S1132F0020813181821B930B918380832D913C918D
S1132F1011978D939C933183208323C08881998159
S1132F2001972D913C911197821B930B8D939C9348
S1132F308A819B81019720813181821B930B0FC071
S1132F408881998101972D913C911197821B930B54
S1132F5011969C938E93208131812D933C93918380
S1132F608083DF91CF910895FC0165AB838588232D
S1132F7049F0662319F0638D70E002C060E070E0F0
S1132F800C9489220895FC016370628F623021F0F1
S1132F90633049F0613039F080EB90E091838083B5
S1132FA08CED90E006C08CED90E09183808380EB03
S1132FB090E0938382830895FC0180819181089538
S1132FC0FC01828193810895CF93DF93FC01A08952
S1132FD0B1899C91818D809589238C93A489B5892D
S1132FE09C91808D809589238C93828587FF11C065
S1132FF07EBD0DB407FEFDCF6EBD0DB407FEFDCF43
S1133000A489B5899C91808D892B8C93DF91CF9174
S1133010089520E130E040E050E8A485B585868934
S1133020EB01C423D5239C91CD2B11F0892B02C035
S1133030809589238C93A685B7859C918789892B54
S11330408C93A685B7859C918789809589238C93D9
S1133050569547952150310901F7D2CFCF93DF938D
S1133060FC01A089B1899C91818D892B8C93A489C1
S1133070B5899C91808D809589238C93828587FF67
S113308011C07EBD0DB407FEFDCF6EBD0DB407FEAD
S1133090FDCFA489B5899C91808D892B8C93DF9178
S11330A0CF91089520E130E040E050E8A485B58553
S11330B08689EB01C423D5239C91CD2B11F0892B58
S11330C002C0809589238C93A685B7859C918789B6
S11330D0892B8C93A685B7859C91878980958923B4
S11330E08C93569547952150310901F7D2CF0F9310
S11330F01F93CF93DF93EC018A010E94E417B80178
S1133100CE01DF91CF911F910F910C942E18CF9384
S1133110DF93EC014FEA50E066E370E00E94771819
S113312040E050E067E370E0CE010E9477184BED79
S113313050E068E370E0CE010E94771840E050E070
S113314069E370E0CE01DF91CF910C947718CF93AF
S1133150DF93FC01EC01EE9688819981AA81BB8101
S1133160AC01BD014F5F5F4F6F4F7F4F4883598361
S11331706A837B83892B8A2B8B2B29F5828587FF96
S11331801BC080914C04882399F02FB7F894809148
S11331904C04813059F48DB380934A049DB38091DB
S11331A04B04809589238DBB2FBF02C020934A0412
S11331B080E58CBD81E08DBDA489B5899C91808D0D
S11331C0809589238C93DF91CF910895CF93DF93DA
S11331D0FC01EC01EE9688819981AA81BB8101975B
S11331E0A109B10988839983AA83BB83892B8A2B7C
S11331F08B2BC9F4A489B5899C91808D892B8C93E0
S1133200828587FF10C080914C04882361F09FB7AA
S1133210F89420914C0480914A04213019F48DBB18
S11332209FBF01C08FBFDF91CF910895AF92BF922E
S1133230CF92DF92EF920F931F93CF93DF93CDB78B
S1133240DEB7C454D1090FB6F894DEBF0FBECDBFAC
S11332506C017EAF6DAF21965FAF4EAF2197239681
S11332603FAF2EAF239725961FAF0EAF25970E2D98
S113327010E01F92EF9225968FAD25978F93249699
S11332808FAD24978F9323968FAD23978F93229698
S11332908FAD22978F9321968FAD21978F938FAD0A
S11332A08F938EAD8F938DAD8F938BE891E09F9329
S11332B08F939E012F5F3F4F59013F932F930E949D
S11332C0F827B5018EE493E00E944B11F60180814A
S11332D0918101972DAD3EAD0FB6F894DEBF0FBEC0
S11332E0CDBF8217930708F49C013EAF2DAF239600
S11332F02EAD3FAD23978217930708F49C012396C4
S11333003FAF2EAF2397F6018281938101972196D7
S11333102EAD3FAD21978217930708F49C012196A7
S11333203FAF2EAF219725962EAD3FAD259782173F
S1133330930708F49C0125963FAF2EAF2597AE0165
S1133340415C5F4FBE01635C7F4FC6010E947117F1
S1133350AE014D5B5F4FBE016F5B7F4FC6010E94A4
S1133360711723962EAD3FAD23978DAD9EAD2817D3
S1133370390730F43EAF2DAF23969FAF8EAF23971E
S113338025962EAD3FAD259721968EAD9FAD219705
S11333902817390740F421963FAF2EAF2197259681
S11333A09FAF8EAF2597C6010E94A718F601828DA4
S11333B0882351F0960148E0849F200D311D11248B
S11333C0F801E20FF31FE4880E2D10E0A80183E05A
S11333D0440F551F8A95E1F7506163E070E0C60120
S11333E00E94771823964EAD5FAD239766E370E095
S11333F0C6010E9477184DAD5EAD67E370E0C6016B
S11334000E94771825964EAD5FAD259768E370E06E
S1133410C6010E94771821964EAD5FAD219769E3EE
S113342070E0C6010E9477181F92EF9225968FAD27
S113343025978F9324968FAD24978F9323968FADE2
S113344023978F9322968FAD22978F9321968FADDA
S113345021978F938FAD8F938EAD8F938DAD8F9377
S11334608BEB91E09F938F93BF92AF920E94F827CA
S1133470B5018EE493E00E944B110FB6F894DEBFC1
S11334800FBECDBFC801959587958130910581F018
S11334903CF4892B59F523964EAD5FAD23970AC0B2
S11334A08230910589F0039709F54DAD5EAD10C0EA
S11334B04DAD5EAD60E270E0C6010E9477182596BE
S11334C04EAD5FAD25970DC023964EAD5FAD2397EE
S11334D060E270E0C6010E94771821964EAD5FADA0
S11334E0219761E270E0C6010E94771862E270E001
S11334F0C6010E94E417C6010E94E618CC5BDF4FA8
S11335000FB6F894DEBF0FBECDBFDF91CF911F91F0
S11335100F91EF90DF90CF90BF90AF900895EF920E
S11335200F931F93E7E0EE2E0E9416191F910F913F
S1133530EF9008956F927F928F929F92AF92BF9275
S1133540CF92DF92EF92FF920F931F93CF93DF936B
S11335505C014B013A01E90168010E948F1AC5011F
S11335600E94A7188FEFC81AD80AC618D708219640
S1133570C819D909CC9E4001CD9E900CDC9E900CBC
S113358011248114910441F0B701C5010E942E1841
S113359081E0881A9108F5CFC5010E94E618C5019B
S11335A0DF91CF911F910F91FF90EF90DF90CF901B
S11335B0BF90AF909F908F907F906F900C948718DE
S11335C0DF92EF92FF920F931F93CF93DF93EC015F
S11335D0DA8C60E00E94C3170A811B810150110933
S11335E02881398121503109E12CF12C40E050E04F
S11335F060E070E0CE010E949A1A6D2DCE010E9407
S1133600C3176AE070E080E090E0DF91CF911F91F2
S11336100F91FF90EF90DF900C940513CF93DF93FD
S1133620EC018E8118163CF461E00E94112360E0E5
S11336308E810E944D238B8518163CF461E00E9414
S1133640112360E0CE010E94B41761E08F810E94D3
S1133650112360E08F810E944D2361E088850E94E0
S1133660112361E088850E944D238885082E000C73
S1133670990BFC01E65EFB4EE491F0E0EE0FFF1FB8
S1133680E25DFB4E259134913D8B2C8BFC01EA5F6E
S1133690FB4EE491E88F8F81082E000C990BFC01FE
S11336A0E65EFB4EE491F0E0EE0FFF1FE25DFB4EA1
S11336B025913491398B288BFC01EA5FFB4EE49110
S11336C0E98F8A8587FD49C061E089850E941123BD
S11336D060E089850E944D2361E08A850E94112360
S11336E061E08A850E944D238A85082E000C990B7F
S11336F0FC01E65EFB4EE491F0E0EE0FFF1FE25D9D
S1133700FB4EA591B491BF87AE87FC01EA5FFB4EE7
S113371084918F8B2985022E000C330BF901E65E10
S1133720FB4EE491F0E0EE0FFF1FE25DFB4E45918E
S113373054915D874C87F901EA5FFB4EE491EE8B6F
S11337409C91E82FE095E923EC93EC85FD8590812D
S11337508E8980958923808306C01F861E861F8AD2
S11337601D861C861E8A8A8587FD0E947C238E8185
S11337701816ECF461E00E944D2361E070E080E0F3
S113378090E00E94051360E08E810E944D236AE060
S113379070E080E090E00E94051361E08E810E9459
S11337A04D2362E370E080E090E00E940513CE01B7
S11337B00E94A71840E050E060E170E0CE010E9452
S11337C0771840E050E061E170E0CE010E94771884
S11337D040E050E062E170E0CE010E94771840E0E2
S11337E050E063E170E0CE010E94771840E050E0C1
S11337F064E170E0CE010E947718CE010E94E618C1
S113380068E270E080E090E00E940513CE010E941F
S1133810A71848E150E061E170E0CE010E947718FA
S113382041E251E662E170E0CE010E9477184FE672
S113383050E063E170E0CE010E9477184FE559E44F
S113384064E170E0CE010E94771840E058E060E146
S113385070E0CE010E947718CE010E94E6186AE05B
S113386070E080E090E00E940513CE010E94A7184A
S11338704BE350E161E170E0CE010E947718CE0184
S11338800E94E61862E370E080E090E00E94051375
S1133890CE010E94A7184CE151E061E070E0CE0136
S11338A00E94771840E051E062E070E0CE010E948F
S11338B0771848E350E163E070E0CE010E94771886
S11338C040E050E067E070E0CE010E94771848E0E5
S11338D058E068E070E0CE010E94771840E051E1C2
S11338E06BE070E0CE010E94771840E050E06CE09D
S11338F070E0CE010E94771841E05DE06FE070E077
S1133900CE010E94771840E250E065E170E0CE01FC
S11339100E94771840E050E060E270E0CE010E941F
S1133920771840E050E061E270E0CE010E94771821
S113393040E050E060E370E0CE010E9477184BED68
S113394050E061E370E0CE010E94771840E050E05F
S113395062E370E0CE010E94771840E050E063E338
S113396070E0CE010E9477184BED50E064E370E004
S1133970CE010E94771840E050E065E370E0CE018C
S11339800E9477184FEA50E066E370E0CE010E948F
S1133990771840E050E067E370E0CE010E947718AA
S11339A04BED50E068E370E0CE010E94771840E0F0
S11339B050E069E370E0CE010E94771840E050E0E7
S11339C060E570E0CE010E94771848E058E061E5B8
S11339D070E0CE010E9477184AE058E062E570E09A
S11339E0CE010E9477184AE050E063E570E0CE0112
S11339F00E94771848E05AE064E570E0CE010E9426
S1133A00771848E058E065E570E0CE010E94771829
S1133A1040E050E066E570E0CE010E94771840E097
S1133A205AE067E570E0CE010E94771840E157E064
S1133A3068E570E0CE010E94771840E157E069E53F
S1133A4070E0CE010E94771842E150E067E070E038
S1133A50CE010E947718CE010E94E61862E370E05E
S1133A6080E090E00E940513CE010E94A71847E170
S1133A7050E167E070E0CE010E947718CE010E9409
S1133A80E61861E0CE010E94B41760E0CE010E9406
S1133A90C3171D821C82CE01DF91CF910C94E01AD2
S1133AA0EF92FF920F931F93CF93DF9300D000D038
S1133AB0CDB7DEB77A8369835C834B83DC014D9198
S1133AC05C9111976417750768F512966D917C9156
S1133AD013974B815C814617570720F579018C01B8
S1133AE0AE014D5F5F4FBE016F5F7F4F0E94711744
S1133AF0C8010E94A71849815A8160E270E0C80198
S1133B000E9477184B815C8161E270E0C8010E94D9
S1133B107718A70162E270E0C8010E947718C80113
S1133B200E94E6180F900F900F900F90DF91CF91A5
S1133B301F910F91FF90EF9008952F923F924F9213
S1133B405F926F927F928F929F92AF92BF92CF9229
S1133B50DF92EF92FF920F931F93CF93DF9300D0E6
S1133B6000D000D0CDB7DEB77C015B016A0181E0F3
S1133B7090E02C01421A530A88279927821B930B41
S1133B80AC01440F551F5C834B833E832D83C701D7
S1133B900E94A7184D815E814C0D5D1D9801B501F1
S1133BA0C7010E94501DA6016D817E81461B570BE3
S1133BB09801B501C7010E94501D6D817E816A0D77
S1133BC07B1D9801A601C7010E94501DB5018D817E
S1133BD09E81681B790B9801A601C7010E94501DA4
S1133BE0612C712C4D815E81641675060CF06BC0DE
S1133BF057FC0CC0415051095E834D836B817C811D
S1133C006E5F7F4F7C836B83460E571E7FEF671A70
S1133C10770AC301880F991F0196480E591E150192
S1133C20260C371C98018D809E808C0C9D1CA40151
S1133C30B101C7010E94501DC501861997099A83D5
S1133C4089839801A401BC01C7010E94501D9801F9
S1133C5046014D815E81841A950AA401B101C70110
S1133C600E94501D9801A40169817A81C7010E94B4
S1133C70501D4601860C971C9801A4012D803E809E
S1133C802A0C3B1CB101C7010E94501D9801A401DC
S1133C90B5018D819E81681B790B7A836983C70185
S1133CA00E94501D4601861897089801A401B1018D
S1133CB0C7010E94501D9801A40169817A81C7013E
S1133CC00E94501D8FCFC70126960FB6F894DEBF11
S1133CD00FBECDBFDF91CF911F910F91FF90EF9059
S1133CE0DF90CF90BF90AF909F908F907F906F9018
S1133CF05F904F903F902F900C94E6182F923F9234
S1133D004F925F926F927F928F929F92AF92BF92E7
S1133D10CF92DF92EF92FF920F931F93CF93DF9393
S1133D2000D000D000D0CDB7DEB74C017E836D83C8
S1133D306A015901FC82EB823801641A750A77FE24
S1133D4003C071946194710875012D813E81E21A5A
S1133D50F30AF7FE03C0F194E194F108E614F704C2
S1133D605CF49A2D8B2D5801092F182F9D818E817B
S1133D70DE82CD82C92ED82E8D819E81A816B906E9
S1133D8058F49C2D8D2D6801092F182F9D818E814B
S1133D90BE82AD82A92EB82E95018D819E81281BED
S1133DA0390B3A83298318012C183D0837FE03C0C8
S1133DB031942194310849805A8057FE03C09FEF03
S1133DC0491A590A55944794C016D10618F00FEFB2
S1133DD01FEF02C001E010E0C4010E94A7182D816A
S1133DE03E81A216B30600F12B813C81E614F70450
S1133DF024F44D815E81B60103C0A6016D817E81EC
S1133E00C4010E94501D4218530857FE06C0C00E3C
S1133E10D11E89819A81480E591E2D813E812F5FC2
S1133E203F4F3E832D83DBCFC40126960FB6F89413
S1133E30DEBF0FBECDBFDF91CF911F910F91FF90D9
S1133E40EF90DF90CF90BF90AF909F908F907F9036
S1133E506F905F904F903F902F900C94E6184F9284
S1133E605F926F927F928F929F92AF92BF92CF9206
S1133E70DF92EF92FF920F931F93CF93DF93EC01A6
S1133E804B013A01290168010E94A7189401A3017A
S1133E90B401CE010E947E1E83019201A301B401EC
S1133EA0CE010E947E1E86019201A601B401CE01BC
S1133EB00E947E1E9201A301B201CE010E947E1EC9
S1133EC0CE01DF91CF911F910F91FF90EF90DF9082
S1133ED0CF90BF90AF909F908F907F906F905F90A6
S1133EE04F900C94E6182F923F924F925F926F92EC
S1133EF07F928F929F92AF92BF92CF92DF92EF9276
S1133F00FF920F931F93CF93DF93CDB7DEB7C255C4
S1133F10D1090FB6F894DEBF0FBECDBF3C017EAF12
S1133F206DAF2A0128963FAF2EAF289718012A9625
S1133F30DFAECEAE2A972E96BFAEAEAE2E972F969C
S1133F408FAE2F97C801079697FD07969C0173E0E3
S1133F50359527957A95E1F724963FAF2EAF2497B0
S1133F60A9963FADA997311105C080E822968FAF7D
S1133F70229704C091E022969FAF2297F301838198
S1133F808F9382818F9381818F9380818F9388EE29
S1133F9091E09F938F938E010F5F1F4F1F930F9399
S1133FA00E94F827B8018EE493E00E944B112DADD6
S1133FB03EAD21963FAF2EAF21970FB6F894DEBFEA
S1133FC00FBECDBF37FF04C021961FAE1EAE219792
S1133FD0A20157FE02C040E050E0F301208131818C
S1133FE08DAD9EAD820D931D2817390708F4C901C4
S1133FF09C012150310926963FAF2EAF2697F3013D
S11340008281938192012E0D3F1D8217930708F43C
S11340109C018901015011096901C41AD50A66E09D
S1134020E62E26962EAD3FAD269721966EAD7FAD3A
S11340302197C3010E941619C3010E94A71857FEB5
S113404005C0AA24BB24A418B50802C0A12CB12C15
S113405057FE05C0EE24FF24E418F50802C0E12C45
S1134060F12C97012C0D3D1D2C963FAF2EAF2C97B4
S113407024968EAD9FAD2497A89E4001A99E900CD6
S1134080B89E900C1124F12CE12C2C96EEADFFADD2
S11340902C97AE16BF060CF094C0CDACDEAC00E09D
S11340A010E028962EAD3FAD2897280D391D619656
S11340B03FAF2EAF6197C501840D951D63969FAFE9
S11340C08EAF6397021513050CF071C0C801877099
S11340D09927892B49F0A9969FADA997992311F0A7
S11340E0F69428C0FF0C26C0A896EFADA897EE233F
S11340F091F0F80117FD379633E0F595E7953A9579
S1134100E1F7E80DF91D28962EAD3FAD2897E20F93
S1134110F31FF4900FC0C80117FD079623E095958F
S113412087952A95E1F76196EEADFFAD6197E80FAB
S1134130F91FF08021968EAD9FAD2197C816D90640
S113414084F12696EEADFFAD2697EC15FD054CF1F6
S113415022968FAD22978F21A9F0EE2071F02A9636
S11341602EAD3FAD2A9763964EAD5FAD6397B60112
S1134170C3010E94501DE12C14C02A966EAD7FAD80
S11341802A9709C02F96FFAD2F97F11108C02E96DC
S11341906EAD7FAD2E97C3010E942E1802C0EE248F
S11341A0E3940F5F1F4F2FEFC21AD20A8BCF3FEF5A
S11341B0A31AB30A24968EAD9FAD2497880E991E38
S11341C064CFC3010E94E618CE5ADF4F0FB6F894AD
S11341D0DEBF0FBECDBFDF91CF911F910F91FF9036
S11341E0EF90DF90CF90BF90AF909F908F907F9093
S11341F06F905F904F903F902F9008958F92AF9261
S1134200BF92CF92DF92EF92FF920F931F931F9270
S1134210E1E0EF9388248394A12CB12C0E94731FB6
S11342200F900F901F910F91FF90EF90DF90CF9020
S1134230BF90AF908F9008958091280490E02091D2
S11342402904821B910908959091290480912804DE
S1134250981750F4E92FF0E0E65DFB4F208130E041
S11342609F5F9093290402C02FEF3FEFC901089587
S1134270E091290480912804E81730F4F0E0E65D29
S1134280FB4F808190E008958FEF9FEF089508958C
S1134290CF93DF93EC01E0910004F0910104309797
S11342A0F1F090912904809128049817C0F090E0CF
S11342B0292F30E02617370754F4DE01A20FB31F6D
S11342C04C91D901A65DBB4F4C939F5FF1CF1092E7
S11342D0290460932804CB01DF91CF910994DF91E5
S11342E0CF910895E0910204F0910304309729F0EE
S11342F0109206041092050409940895CF92DF9257
S1134300EF92FF920F931F93CF93DF937C01CB0126
S11343108A0120910404222389F0EB016B01C40E6D
S1134320D51ECC15DD0569F06991D701ED91FC919D
S11343300190F081E02DC7010995F3CF642F0E940D
S1134340F123C801DF91CF911F910F91FF90EF905E
S1134350DF90CF900895CF93DF931F92CDB7DEB750
S11343606983209104042223D1F020910504203292
S113437040F021E030E0FC013383228380E090E0D0
S113438015C080910604E82FF0E0E95FFB4F9981A6
S113439090838F5F809306048093050405C061E0D9
S11343A0CE0101960E94F12381E090E00F90DF910D
S11343B0CF910895FC011382128288EE93E0A0E06D
S11343C0B0E084839583A683B7838AE092E09183E7
S11343D080830895109229041092280410920604F0
S11343E0109205040E94B22382E791E20E941E24E7
S11343F088E491E20C941924CB01BA010C94DD23D6
S113440081E08093040460932704109206041092C0
S1134410050408950F93062F21E04091050467E0F9
S113442074E0809127040E942825109206041092BB
S11344300504109204040F9108954F925F926F92B5
S11344407F92AF92BF92CF92EF92FF920F931F93FE
S1134450CF93DF935C01F62ED42F28013901EE208F
S113446021F10E940022CE2DC43008F0C3E0C150D7
S1134470C0F028E0C29FC0011124A301920104C02E
S113448056954795379527958A95D2F7CA01B9016C
S1134490D501ED91FC910190F081E02DC5010995C4
S11344A0E6CF60E0C5010E940A224D2FD13208F008
S11344B040E22C2D6AE274E08F2D0E943F2410927A
S11344C0290480932804DF91CF911F910F91FF90CD
S11344D0EF90CF90BF90AF907F906F905F904F9090
S11344E00895CF92EF920F931F93C22EE12C00E018
S11344F010E098010E941D221F910F91EF90CF9020
S1134500089521E00C94712284EF93E00C94DA2155
S113451008951F93CF93DF93182FEB0161E00E945E
S11345201123209711F460E004C0CF3FD10539F482
S113453061E0812FDF91CF911F910C944D23E12FE6
S1134540F0E0EE50FC4EE491E330F9F048F4E13051
S1134550B9F0E230A1F584B5806284BDC8BD34C031
S1134560E730E9F0E83019F1E43049F58091800052
S1134570806280938000D0938B00C0938A0024C013
S113458084B5806884BDC7BD1FC0809180008068E9
S113459080938000D0938900C093880015C08091D7
S11345A0B00080688093B000C093B3000DC08091C8
S11345B0B00080628093B000C093B40005C0C038DE
S11345C0D1050CF0B5CFAFCFDF91CF911F910895F6
S11345D0833081F028F4813099F08230A1F008957D
S11345E08730A9F08830B9F08430D1F4809180000C
S11345F08F7D03C0809180008F7780938000089521
S113460084B58F7702C084B58F7D84BD0895809171
S1134610B0008F7703C08091B0008F7D8093B0008D
S11346200895CF93DF9390E0FC01EA5FFB4E249161
S1134630FC01E65EFB4E8491882361F190E0880FD3
S1134640991FFC01E85CFB4EC591D491FC01E25D2D
S1134650FB4EA591B491611109C09FB7F89488816C
S1134660209582238883EC912E230BC0623061F461
S11346709FB7F8948881322F309583238883EC91F7
S11346802E2B2C939FBF06C08FB7F894E8812E2B56
S113469028838FBFDF91CF9108951F93CF93DF932A
S11346A0282F30E0F901EE50FC4E8491F901EA5FC5
S11346B0FB4ED491F901E65EFB4EC491CC23C1F0CC
S11346C0162F81110E94E822EC2FF0E0EE0FFF1F5D
S11346D0E25DFB4EA591B4919FB7F894111104C00B
S11346E08C91D095D82302C0EC91DE2BDC939FBF34
S11346F0DF91CF911F910895CF93CFB7F894809114
S11347004D04811127C0E4E2F4E18491E0E1F4E195
S11347109491E82FF0E0EE0FFF1FE85CFB4EA591AB
S1134720B491EC91E92321F461E08AE00E944D23E5
S113473061E08AE00E9411238CB580618CBD8CB548
S113474080648CBD61E08DE00E94112361E08BE008
S11347500E94112380914D048F5F80934D04CFBF3D
S1134760CF9108951092C10481E08093BF04109208
S1134770BE0461E082E10E944D2361E083E10E9476
S11347804D23E9EBF0E080818E7F808380818D7FF3
S1134790808388E48093B80085E48093BC00089506
S11347A0ECEBF0E080818A7B808360E082E10E9410
S11347B04D2360E083E10C944D239B01AC0160E048
S11347C074E284EF90E00E949727DA01C9014097D0
S11347D0A109B109B695A795979587958093B800D7
S11347E0089540917004262F30E0240F311D2132AA
S11347F03105DCF42091C1042430C9F4FC0180E0CB
S113480090E0861758F4309170042191DC01AE5881
S1134810BB4FA30FB11D2C930196F3CF809170046D
S1134820680F6093700480E0089581E0089582E049
S113483008959093B5048093B40408959093B704B5
S11348408093B604089585EC8093BC001092C10453
S11348500895CF93DF9391E09093B904882361F096
S1134860C091B800D091BA000E94D0230E94B22314
S1134870D093BA00C093B800DF91CF9108954F92BE
S11348805F926F927F928F929F92AF92BF92CF92DC
S1134890DF92EF92FF920F931F93CF93DF93F82E43
S11348A0162F072FC42FE22E413208F0BEC00E94FB
S11348B0E0124B015C01D091C104DD2331F1809100
S11348C0BA049091BB04A091BC04B091BD04892B9F
S11348D08A2B8B2B81F30E94E0124090BA045090F3
S11348E0BB046090BC047090BD04DC01CB0188194A
S11348F09909AA09BB09481659066A067B06D8F61F
S11349008091B8040E94292490C081E08093C1045E
S1134910E092BF049FEF90934E04109293049C0F77
S1134920909392048093C0049091C0048F2D880FBB
S1134930892B8093C0048091BE04813089F5109244
S1134940BE040E94E0126B017C018091C00480933C
S1134950BB008091BA049091BB04A091BC04B091B7
S1134960BD04892B8A2B8B2BA9F00E94E012809026
S1134970BA049090BB04A090BC04B090BD04DC01C8
S1134980CB018C199D09AE09BF0988169906AA06A0
S1134990BB0690F18091BC0083FDD7CF85EC01C0AC
S11349A085EE8093BC000E94E0126B017C01809133
S11349B0C104813031F58091BA049091BB04A09177
S11349C0BC04B091BD04892B8A2B8B2B81F30E94EC
S11349D0E0128090BA049090BB04A090BC04B09004
S11349E0BD04DC01CB018C199D09AE09BF098816F1
S11349F09906AA06BB06D8F68091B8040E94292419
S1134A0015C0809193048C1710F4C0919304A4E909
S1134A10B4E0912FE12FF02F8E2F891B8C1718F4FF
S1134A208D918193F9CFDC2F01C0D0E08D2FDF91E0
S1134A30CF911F910F91FF90EF90DF90CF90BF9097
S1134A40AF909F908F907F906F905F904F9008955C
S1134A504F925F926F927F928F929F92AF92BF928A
S1134A60CF92DF92EF92FF920F931F93CF93DF9336
S1134A70413208F0C6C0122FF42ED72EE62ED82FBE
S1134A800E94E0124B015C01C091C104CC2311F1DE
S1134A908091BA049091BB04A091BC04B091BD0470
S1134AA0892B8A2B8B2B81F30E94E0124090BA044D
S1134AB05090BB046090BC047090BD04DC01CB0139
S1134AC088199909AA09BB09481659066A067B067A
S1134AD0D8F683C082E08093C1040093BF048FEFB3
S1134AE080934E0410929304F09292049E2DA4E9B4
S1134AF0B4E0EE2DFD2D8E2F891B8F1518F48191B6
S1134B008D93F9CF1092C0049091C004DD0FD92B7E
S1134B10D093C0048091BE04813089F51092BE0404
S1134B200E94E0126B017C018091C0048093BB0061
S1134B308091BA049091BB04A091BC04B091BD04CF
S1134B40892B8A2B8B2BA9F00E94E0128090BA0447
S1134B509090BB04A090BC04B090BD04DC01CB01D8
S1134B608C199D09AE09BF0988169906AA06BB06C9
S1134B70A0F18091BC0083FDD7CF85EC01C085EE08
S1134B808093BC000E94E0126B017C01112359F157
S1134B908091C104823039F58091BA049091BB04AC
S1134BA0A091BC04B091BD04892B8A2B8B2B71F38B
S1134BB00E94E0128090BA049090BB04A090BC04C0
S1134BC0B090BD04DC01CB018C199D09AE09BF096D
S1134BD088169906AA06BB06C8F68091B8040E94F6
S1134BE02924C5E013C080914E048F3F79F0809151
S1134BF04E04803241F080914E04803331F0C4E0A1
S1134C0005C0C1E003C0C2E001C0C3E08C2FDF9146
S1134C10CF911F910F91FF90EF90DF90CF90BF90B5
S1134C20AF909F908F907F906F905F904F9008957A
S1134C3085ED8093BC008091BA049091BB04A0914F
S1134C40BC04B091BD040796A11DB11D23E0B69527
S1134C50A795979587952A95D1F72091BC0024FFB5
S1134C601CC04091BA045091BB046091BC04709183
S1134C70BD04452B462B472B81F30097A105B105B5
S1134C8041F025E32A95F1F700000197A109B10944
S1134C90E4CF8091B8040C9429241092C10408959F
S1134CA01F920F920FB60F9211242F933F934F939D
S1134CB05F936F937F938F939F93AF93BF93EF9380
S1134CC0FF938091B900887F803609F49EC078F5FF
S1134CD0883209F45DC090F4803109F456C038F488
S1134CE0882309F4F5C0883009F44FC0F5C0883131
S1134CF009F44EC0803209F45FC0EEC0803409F478
S1134D006AC058F4803309F457C0883309F0E4C00A
S1134D1080934E040E942324DFC0803509F44FC0E1
S1134D20883509F45DC0883409F0D6C0D3C0883909
S1134D3009F4C4C0A8F4883709F467C038F4883685
S1134D4009F463C0803709F460C0C6C0883809F428
S1134D50B5C0803909F45FC0803809F0BDC05BC0BC
S1134D60803B09F483C038F4803A09F466C0883A79
S1134D7009F47CC0B1C0803C09F4A4C0883C09F4A7
S1134D80A1C0883B09F487C0A7C08091C00410C0AB
S1134D909091930480919204981770F5E091930494
S1134DA081E08E0F80939304F0E0EC56FB4F8081FA
S1134DB08093BB0085EC83C080934E048BC0E0914C
S1134DC0930481E08E0F809393048091BB00F0E004
S1134DD0EC56FB4F808390919304809192046BC0B6
S1134DE0E091930481E08E0F809393048091BB0043
S1134DF0F0E0EC56FB4F80838091BF0481116AC0C0
S1134E0081E08093BE0484EA5EC083E08093C104A1
S1134E1010924F04CFCF80914F04803208F04EC0DF
S1134E20E0914F0481E08E0F80934F048091BB008A
S1134E30F0E0E05BFB4F8083BDCF0E942324809190
S1134E404F04803230F4E0914F04F0E0E05BFB4F1C
S1134E50108260914F0470E0E091B404F091B504C5
S1134E6080E594E0099510924F0436C084E0809365
S1134E70C1041092710410927004E091B604F09190
S1134E80B704099580917004811105C081E0809375
S1134E90700410927204E091710481E08E0F80938B
S1134EA07104F0E0EE58FB4F80818093BB00909139
S1134EB0710480917004981708F47CCF85E880937E
S1134EC0BC000AC085EC8093BC001092C10404C0ED
S1134ED010924E040E941826FF91EF91BF91AF915A
S1134EE09F918F917F916F915F914F913F912F91FE
S1134EF00F900FBE0F901F9018950E94AF0E08F4EC
S1134F0081E008950E94AF0E880B990B0895DB0190
S1134F108F939F930E94DE27BF91AF91A29F800D34
S1134F20911DA39F900DB29F900D11240895A1E2AD
S1134F301A2EAA1BBB1BFD010DC0AA1FBB1FEE1F0F
S1134F40FF1FA217B307E407F50720F0A21BB30B5A
S1134F50E40BF50B661F771F881F991F1A9469F7D6
S1134F6060957095809590959B01AC01BD01CF0132
S1134F700895052E97FB1EF400940E94D02757FD38
S1134F8007D00E94972707FC03D04EF40C94D02737
S1134F9050954095309521953F4F4F4F5F4F089561
S1134FA090958095709561957F4F8F4F9F4F089591
S1134FB0EE0FFF1F0590F491E02D09940E94E9275C
S1134FC0A59F900DB49F900DA49F800D911D112459
S1134FD00895A29FB001B39FC001A39F700D811DCE
S1134FE01124911DB29F700D811D1124911D0895EE
S1134FF0AEE0B0E0EEEFF7E20C94B92A0D891E8919
S113500086E08C831A8309838FEF9FE79E838D83C9
S1135010AE01475E5F4F6F89788DCE0101960E9485
S11350201A28EF81F885E00FF11F10822E96E4E034
S11350300C94D52AABE0B0E0E0E2F8E20C94AB2AA1
S11350406C017B018A01FC0117821682838181FF36
S1135050CCC1CE0101963C01F6019381F70193FD89
S1135060859193FF81917F01882309F4BAC1853228
S113507039F493FD859193FF81917F01853229F461
S1135080B60190E00E94112AE7CF912C212C312CFB
S1135090FFE1F315D8F08B3279F038F4803279F0EF
S11350A08332A1F4232D20611DC08D3261F0803341
S11350B069F4232D216016C0832D8260382EE32DE0
S11350C0E4603E2E2AC0F32DF8601DC037FC2DC0CD
S11350D020ED280F2A3040F08E32B9F436FC81C11D
S11350E0232D2064322E19C036FE06C08AE0989E15
S11350F0200D1124922E11C0EAE02E9E200D1124C1
S1135100222EF32DF0623F2E08C08C3621F4832D1D
S11351108068382E02C0883641F4F70193FD8591EA
S113512093FF81917F018111B3CF982F9F7D955477
S1135130933028F40C5F1F4F9FE399830DC083368F
S113514031F0833771F0833509F059C021C0F8017B
S1135150808189830E5F1F4F88248394912C53018F
S113516013C02801F2E04F0E511CF801A080B18059
S113517036FE03C0692D70E002C06FEF7FEFC501FA
S11351800E94062A4C018201F32DFF773F2E16C0A0
S1135190280122E0420E511CF801A080B18036FEA5
S11351A003C0692D70E002C06FEF7FEFC5010E945C
S11351B0FB294C01F32DF0683F2E820133FC1BC008
S11351C0822D90E088169906B0F4B60180E290E052
S11351D00E94112A2A94F4CFF50137FC859137FEF9
S11351E081915F01B60190E00E94112A21102A9456
S11351F021E0821A91088114910471F7E8C0843681
S113520011F0893641F5F80137FE07C060817181DC
S1135210828193810C5F1F4F08C060817181072ECA
S1135220000C880B990B0E5F1F4FF32DFF763F2E5A
S113523097FF09C090958095709561957F4F8F4F2A
S11352409F4FF0683F2E2AE030E0A3010E944D2AD0
S1135250882E861845C0853731F4232D2F7EB22E33
S11352602AE030E025C0932D997FB92E8F36C1F006
S113527018F4883579F0B5C0803719F0883721F0F3
S1135280B0C0E92FE061BE2EB4FE0DC0FB2DF4606A
S1135290BF2E09C034FE0AC0292F2660B22E06C0D4
S11352A028E030E005C020E130E002C020E132E037
S11352B0F801B7FE07C060817181828193810C5F20
S11352C01F4F06C06081718180E090E00E5F1F4F28
S11352D0A3010E944D2A882E8618FB2DFF773F2EAE
S11352E036FE0DC0232D2E7FA22E891458F434FED1
S11352F00BC032FC09C0832D8E7EA82E05C0B82CAD
S1135300A32C03C0B82C01C0B92CA4FE0FC0FE010D
S1135310E80DF11D8081803321F49A2D997EA92E08
S113532009C0A2FE06C0B394B39404C08A2D867843
S113533009F0B394A3FC11C0A0FE06C0B21488F413
S1135340280C922C9B180EC0B21460F4B60180E2B3
S113535090E00E94112AB394F7CFB21418F42B18DA
S113536002C0982C212CA4FE10C0B60180E390E06A
S11353700E94112AA2FE17C0A1FC03C088E790E096
S113538002C088E590E0B6010CC08A2D867859F0F9
S1135390A1FE02C08BE201C080E2A7FC8DE2B6014F
S11353A090E00E94112A891438F4B60180E390E059
S11353B00E94112A9A94F7CF8A94F301E80DF11D03
S11353C08081B60190E00E94112A8110F5CF22203D
S11353D009F442CEB60180E290E00E94112A2A9498
S11353E0F6CFF6018681978102C08FEF9FEF2B964F
S11353F0E2E10C94C72AFC01059061507040011051
S1135400D8F7809590958E0F9F1F0895FC016150E9
S1135410704001900110D8F7809590958E0F9F1FD2
S113542008950F931F93CF93DF93FB01238121FDF5
S113543003C08FEF9FEF2CC022FF16C04681578117
S1135440248135814217530744F4A081B1819D0121
S11354502F5F3F4F318320838C93268137812F5FC9
S11354603F4F3783268314C08B01EC01FB0100847A
S1135470F185E02D0995892BE1F6D80116968D91D9
S11354809C911797019617969C938E931697CE012D
S1135490DF91CF911F910F910895FA01AA27283027
S11354A051F1203181F1E8946F936E7F6E5F7F4FED
S11354B08F4F9F4FAF4FB1E03ED0B4E03CD0670F69
S11354C0781F891F9A1FA11D680F791F8A1F911DBC
S11354D0A11D6A0F711D811D911DA11D20D009F40C
S11354E068943F912AE0269F11243019305D31934E
S11354F0DEF6CF010895462F4770405D4193B3E037
S11355000FD0C9F7F6CF462F4F70405D4A3318F0DD
S1135510495D31FD4052419302D0A9F7EACFB4E08E
S1135520A6959795879577956795BA95C9F7009746
S11355306105710508959B01AC010A2E06945795E7
S1135540479537952795BA95C9F7620F731F841F3E
S1135550951FA01D08952F923F924F925F926F92D4
S11355607F928F929F92AF92BF92CF92DF92EF92EF
S1135570FF920F931F93CF93DF93CDB7DEB7CA1B70
S1135580DB0B0FB6F894DEBF0FBECDBF09942A889B
S1135590398848885F846E847D848C849B84AA8443
S11355A0B984C884DF80EE80FD800C811B81AA81D0
S11355B0B981CE0FD11D0FB6F894DEBF0FBECDBF9B
S10B55C0ED010895F894FFCFFA
S11355C89600960003020706010005040607040571
S11355D80203000105040100070603024572726F05
S11355E87220636F6D6D756E69636174696E67208F
S11355F8776974682073656E736F722C20636865AD
S1135608636B20776972696E6720616E6420493222
S113561843206164647265737300507265737375B3
S11356287265203D09006B50610000000000890F7D
S1135638FF104A0FD60F1C0F360F280F0D0A006EE5
S1135648616E00696E66006F7666007365745769EB
S11356586E646F7773282078303D25642C20793068
S11356683D25642C2078313D25642C2079313D2555
S1135678642C206D6F64653D2564006765647265FC
S113568868743A2078303D25642C2079303D2564AF
S11356982C2078313D25642C2079313D25642C203B
S11356A86D6F64653D256400447261774269746D69
S11356B861702E2E206D6178583D25642C206D6113
S11356C878593D25640000000000AB217E215D105F
S10B56D847211C212421382183
S9030000FC
